:1000000033C000005CC000007DC0000048C000009C
:1000100046C00000F2C0000042C0000040C0000026
:100020003EC000003CC000003AC0000038C00000E4
:1000300036C0000034C0000032C0000030C00000F4
:100040002EC000002CC000002AC0000028C0000004
:1000500026C0000024C0000022C0000020C0000014
:100060001EC000001CC0000011241FBECFEFD8E04E
:10007000DEBFCDBF11E0A0E0B1E0E4ECF9E002C0EA
:1000800005900D92A034B107D9F721E0A0E4B1E0CA
:1000900001C01D92AC35B207E1F70CD191C4B0CFCD
:1000A0008091410190914201C6C16091000124E418
:1000B000AC01249FC001259F900D112455C11F92B2
:1000C0000F920FB60F9211242F933F934F935F938C
:1000D0006F937F938F939F93AF93BF93EF93FF9310
:1000E0005DD1FF91EF91BF91AF919F918F917F91E2
:1000F0006F915F914F913F912F910F900FBE0F9095
:100100001F9018951F920F920FB60F9211242F93E4
:100110003F934F935F936F937F938F939F93AF938F
:10012000BF93EF93FF933AD1FF91EF91BF91AF91BE
:100130009F918F917F916F915F914F913F912F91FF
:100140000F900FBE0F901F90189520914101309194
:10015000420122279FEF980F983028F030934201F8
:10016000209341010895815041E050E0BA0102C05E
:10017000660F771F8A95E2F7262B372B30934201C3
:10018000209341018DCF8093440121E030E0A9010B
:1001900002C0440F551F8A95E2F7CA014CD18091E5
:1001A00044010895809144018F5F893018F4809351
:1001B000440102C01092440180914401C6DF809145
:1001C00044010895E82FF0E0EA5BFE4F8081813022
:1001D00059F45D9880914301813039F48FE99FE0B3
:1001E0000197F1F700C000005D9A0895E82FF0E054
:1001F000E25BFE4F808190E058CF1F920F920FB6C6
:100200000F9211248F9389B189B18F910F900FBEF6
:100210000F901F901895CF9324E040E060E080E0BD
:100220006AD0DBD005D1219A8FE891E00197F1F7F0
:1002300000C00000A6D08FE891E00197F1F700C060
:100240000000559A57985498569880916800846099
:100250008093680080916D00806480936D00809130
:100260006D00806880936D0082E190E0B9D0C5E0B8
:100270008AEA9AEAE0D09FEF23EC89E0915020408F
:100280008040E1F700C0000085E595E5D4D09FEF00
:1002900023EC89E0915020408040E1F700C000004D
:1002A000C15031F781E08093430180E06CDF7894A6
:1002B000CF910895B0DFC1E04F9B05C080E063DFC0
:1002C000809144017FDF4E9B0DC0809140018111E0
:1002D00009C0C093400166DF8091440173DF8091C3
:1002E000440184DF4E99E8CF80914001813021F7AD
:1002F00010924001E1CF203F39F42398249A94B121
:10030000947094B9259804C0239A2498259A229A27
:100310001CBC411102C040E401C040EC90E2699F66
:10032000B0011124203F11F430E001C030E181FD23
:1003300002C090E001C098E080FD02C080E001C0F2
:1003400084E0522F5370652B642B632B962B892BE3
:100350008CBD22FB222720F92DBD08958EBD0DB442
:1003600007FEFDCF8EB50895CF93C82F2998892F0A
:100370008F70607F862BF2DF8C2FF0DF299ACF9170
:10038000089552985398109245018DB383608DBBA8
:10039000E9E6F0E0808185608083089589B199B1B4
:1003A00083FB222720F930E0220F331F92FB99278D
:1003B00090F9822F892BE0914501EF7094E0E99F3D
:1003C000F0011124E80FF11D87FDFA95EE5FFE4F55
:1003D00080818093450180730895229A2A9A089516
:1003E000CF93DF93EC01DF93CF938EE191E09F9366
:1003F0008F932DD0FE0184E0F695E7958A95E1F77D
:10040000EF70CF700F900F900F900F90E11101C01F
:10041000EAE02A98F0E0EC5CFE4F80819FDFD0E0BC
:10042000CC5CDE4F88819ADF2A9ADF91CF910895C4
:10043000209A289A0895CF93C82F2898892F8095BD
:100440008DDF8C2F80958ADF289ACF910895A0E0C8
:10045000B0E0ECE2F2E08DC2AE014B5F5F4FFA011B
:1004600061917191AF01809158019091590102D031
:10047000E2E09BC2ACE0B0E0EFE3F2E06AC27C01F4
:100480006B018A01FC0117821682838181FFB0C152
:10049000CE0101964C01F7019381F60193FD859100
:1004A00093FF81916F01882309F49EC1853239F44D
:1004B00093FD859193FF81916F01853221F4B701FE
:1004C00090E0B1D1E8CF512C312C20E02032A0F4C3
:1004D0008B3269F030F4803259F0833269F4206154
:1004E0002CC08D3239F0803339F4216026C022606F
:1004F000246023C0286021C027FD27C030ED380FBD
:100500003A3078F426FF06C0FAE05F9E300D1124E1
:10051000532E13C08AE0389E300D1124332E2062F2
:100520000CC08E3221F426FD5FC1206406C08C36DB
:1005300011F4206802C0883641F4F60193FD8591DC
:1005400093FF81916F018111C1CF982F9F7D9554A9
:10055000933028F40C5F1F4FFFE3F9830DC08336FF
:1005600031F0833771F0833509F057C021C0F801AD
:10057000808189830E5F1F4F44244394512C540182
:1005800014C03801F2E06F0E711CF801A080B18038
:1005900026FF03C0652D70E002C06FEF7FEFC5013D
:1005A0002C8736D12C0183012C852F77222E16C063
:1005B0003801F2E06F0E711CF801A080B18026FFB7
:1005C00003C0652D70E002C06FEF7FEFC5012C877F
:1005D00014D12C012C852068222E830123FC19C004
:1005E000832D90E048165906A0F4B70180E290E010
:1005F0001AD13A94F5CFF50127FC859127FE819118
:100600005F01B70190E00FD131103A94F1E04F1A39
:1006100051084114510479F7DEC0843611F089364F
:1006200031F5F80127FF07C06081718182819381D4
:100630000C5F1F4F08C060817181072E000C880B72
:10064000990B0E5F1F4F2F76722E97FF09C0909562
:100650008095709561957F4F8F4F9F4F2068722EC8
:100660002AE030E0A40117D1A82EA81843C085378E
:1006700029F42F7EB22E2AE030E025C0F22FF97F38
:10068000BF2E8F36C1F018F4883579F0ADC08037B1
:1006900019F0883721F0A8C02F2F2061B22EB4FEA8
:1006A0000DC08B2D8460B82E09C024FF0AC09F2F77
:1006B0009660B92E06C028E030E005C020E130E0A9
:1006C00002C020E132E0F801B7FE07C0608171810D
:1006D000828193810C5F1F4F06C06081718180E031
:1006E00090E00E5F1F4FA401D6D0A82EA818FB2DB6
:1006F000FF777F2E76FE0BC0372D3E7FA51450F47A
:1007000074FE0AC072FC08C0372D3E7E05C0BA2CAC
:10071000372D03C0BA2C01C0B52C34FF0DC0FE012B
:10072000EA0DF11D8081803311F4397E09C032FF5A
:1007300006C0B394B39404C0832F867809F0B394B1
:1007400033FD12C030FF06C05A2CB31418F4530CFA
:100750005B18B32CB31460F4B70180E290E03C87DF
:1007600062D0B3943C85F6CFB31410F43B1801C0AB
:10077000312C34FF11C0B70180E390E03C8753D0A7
:100780003C8532FF16C031FD03C088E790E002C00F
:1007900088E590E0B7010CC0832F867851F031FFD7
:1007A00002C08BE201C080E237FD8DE2B70190E02C
:1007B0003AD0A51430F4B70180E390E034D05A94D5
:1007C000F8CFAA94F401EA0DF11D8081B70190E001
:1007D0002AD0A110F6CF332009F45DCEB70180E214
:1007E00090E021D03A94F7CFF7018681978102C03B
:1007F0008FEF9FEF2C96E2E1C8C0FC01059061509D
:1008000070400110D8F7809590958E0F9F1F089526
:10081000FC016150704001900110D8F780959095CF
:100820008E0F9F1F08950F931F93CF93DF93FB01AC
:10083000238121FD03C08FEF9FEF28C022FF16C048
:1008400046815781248135814217530744F4A081A2
:10085000B1819D012F5F3F4F318320838C9326818F
:1008600037812F5F3F4F3783268310C0EB01092F5D
:10087000182F0084F185E02D0995892BE1F68E81F2
:100880009F8101969F838E83812F902FDF91CF913F
:100890001F910F910895FA01AA27283051F12031B4
:1008A00081F1E8946F936E7F6E5F7F4F8F4F9F4F04
:1008B000AF4FB1E03ED0B4E03CD0670F781F891F46
:1008C0009A1FA11D680F791F8A1F911DA11D6A0F14
:1008D000711D811D911DA11D20D009F468943F91C7
:1008E0002AE0269F11243019305D3193DEF6CF01C6
:1008F0000895462F4770405D4193B3E00FD0C9F78C
:10090000F6CF462F4F70405D4A3318F0495D31FDF8
:100910004052419302D0A9F7EACFB4E0A69597954B
:10092000879577956795BA95C9F700976105710521
:1009300008959B01AC010A2E06945795479537956B
:100940002795BA95C9F7620F731F841F951FA01DC5
:1009500008952F923F924F925F926F927F928F9263
:100960009F92AF92BF92CF92DF92EF92FF920F933E
:100970001F93CF93DF93CDB7DEB7CA1BDB0B0FB648
:10098000F894DEBF0FBECDBF09942A883988488805
:100990005F846E847D848C849B84AA84B984C8849B
:1009A000DF80EE80FD800C811B81AA81B981CE0F92
:1009B000D11D0FB6F894DEBF0FBECDBFED01089577
:0409C000F894FFCFD9
:1009C40050000002040003000110030200000302AF
:1009D40001000600040006050020060504006E75EB
:1009E4006D626572546F446973706C6179203D2047
:1009F40025640A0081BDC898B49282B98090FF0032
:00000001FF
